:100000000C9446000C9465000C9465000C946500FB
:100010000C9465000C9465000C9465000C946500CC
:100020000C9465000C9465000C9463060C946500B8
:100030000C9465000C9465000C942E060C946500DD
:100040000C94FA050C9465000C9465000C94650002
:100050000C9465000C9496020C9465000C94650059
:100060000C9465000C9465000C9465000C9465007C
:100070000C9465000C9497060C9465000C94650034
:100080000C9465000C9465000C94650011241FBE4F
:10009000CFEFD0E1DEBFCDBF12E0A0E0B1E0E8E7F6
:1000A000F9E100E00BBF02C007900D92A634B10742
:1000B000D9F712E0A6E4B2E001C01D92A337B10760
:1000C000E1F70E9467000C94BA0C0C9400000F93A7
:1000D0001F93DF93CF93CDB7DEB728970FB6F89471
:1000E000DEBF0FBECDBFDE011196E0E0F1E088E09B
:1000F00001900D928150E1F70E94DE00E0E0F0E017
:100100008E010F5F1F4FEE0FFF1FE00FF11F0190D9
:10011000F081E02D0995FC01F6CF20E030E041E0D0
:100120008091460290914702895E9340C8F392B352
:100130009170942782B38E7F892B82BB10924702E5
:10014000109246022F5F3F4F253031054CF39198B6
:100150000895949A929A93980895949A9298939A5B
:10016000089520E030E041E08091460290914702FE
:10017000895E9340C8F392B39170942782B38E7FC7
:10018000892B82BB10924702109246022F5F3F4F8D
:10019000253031054CF3919A0895949808958091F3
:1001A000460290914702019690934702809346023F
:1001B000089580E090E00E94FB010895CF92DF92C5
:1001C000EF92FF920F931F93DF93CF93CDB7DEB7DC
:1001D0006E970FB6F894DEBF0FBECDBF83E090E000
:1001E000482F9A83898381E0C82ED12C6C2DDC8224
:1001F000CB828BE18D835A817C810E9471011F82A9
:100200001E821986188686E08A874E815F816885FE
:1002100079850E947101EC2CDC8ACB8A86E090E023
:10022000082F9E8B8D8B188E1F8A1A8E198E6C2D1F
:10023000DC8ECB8EFC881E892F89388D498D5A8D96
:100240007C8D8D8D9E8D0E9420021C861B8681E0F8
:1002500090E0A0E0B0E0482F8D879E87AF87B88BF5
:100260008FEC90E09A8B898B2B853C855E856F8522
:1002700078899A890E943704919AC99AC89A6E9689
:100280000FB6F894DEBF0FBECDBFCF91DF911F91A7
:100290000F91FF90EF90DF90CF90089529B381E008
:1002A000282730E021703070C9010895C99B03C030
:1002B00022E030E002C023E030E0C90108950E944E
:1002C000AD000E94B1000E94CD0080E090E0089552
:1002D0000E948D000E94A9000E94CD0082E090E063
:1002E0000895DF93CF9300D000D00F92CDB7DEB743
:1002F00049835A836B837C838D8329813A81482F7C
:100300008B819C81019789F52330310501F12430DF
:10031000310538F42130310599F02230310598F457
:100320000BC025303105C9F02530310598F0263055
:10033000310509F057C015C08AB3842B8ABB52C05F
:1003400087B3842B32C084B3842B84BB4BC081B36E
:10035000842B34C082B1842B36C080916100842B01
:1003600038C080916400842B3BC02330310519F1E3
:100370002430310548F421303105A1F0942F9095B7
:1003800022303105A0F40AC025303105F1F02530C6
:100390003105B0F02630310529F51EC08AB3982307
:1003A0009ABB20C087B34095842387BB1BC084B30E
:1003B000982394BB17C081B34095842381BB12C09E
:1003C00082B14095842382B90DC08091610040952F
:1003D00084238093610006C080916400409584234B
:1003E000809364000F900F900F900F900F90CF911B
:1003F000DF910895089597B1907E97B997B1982BA2
:1004000097B9369A80910801909109018130910540
:1004100059F4349BFECF34B125B1922F80E0232FC5
:1004200030E0282B392B0AC0892B19F020E030E06E
:1004300005C0349BFECF85B1282F30E0C901089557
:10044000EF92FF920F931F93DF93CF93CDB7DEB759
:100450002C970FB6F894DEBF0FBECDBFE982FA82AB
:100460000B831C83E22F2D833E834F83588769873C
:100470007A878B879C874B815C8129813A816B8548
:100480007C85AF81B88509851A8516B84830510535
:10049000E8F586B1842B86B92130310551F0213041
:1004A000310520F02230310589F50BC0379A359A95
:1004B00009C0379A8AEF91E090935A0280935902CB
:1004C0000DC0379A339A87B1807E87B987B18E2B5A
:1004D00087B9369A70935A0260935902109709F4BB
:1004E0003D9AB0930901A093080187B18F7387B932
:1004F0000130110511F43E9A06C00330110519F4BC
:1005000087B1806C87B921E030E002C020E030E0A4
:10051000C9012C960FB6F894DEBF0FBECDBFCF91A8
:10052000DF911F910F91FF90EF9008951F920F920E
:100530000FB60F920BB60F9211242F933F934F9348
:100540005F936F937F938F939F93AF93BF93EF933B
:10055000FF93E0915902F0915A020995FF91EF91B2
:10056000BF91AF919F918F917F916F915F914F91CB
:100570003F912F910F900BBE0F900FBE0F901F90C9
:1005800018950895EF92FF92DF93CF93CDB7DEB722
:100590002C970FB6F894DEBF0FBECDBFE982FA826A
:1005A00089819A818130910581F08130910530F007
:1005B0008230910589F00397E1F415C081EC92E057
:1005C00090936E0280936D0214C081EC92E0909340
:1005D0007202809371020DC081EC92E090935602FA
:1005E0008093550206C081EC92E09093680280935C
:1005F00067022C960FB6F894DEBF0FBECDBFCF9129
:10060000DF91FF90EF900895CF92DF92EF92FF92EB
:100610000F931F93DF93CF93CDB7DEB72E970FB60F
:10062000F894DEBF0FBECDBFC982DA82EB82FC82B6
:100630000D831E832F83388749875A876B877C8772
:100640008D879E874F8158852D853E8569857A8562
:10065000AB85BC8589819A818130910529F18130F2
:10066000910540F08230910509F443C0039709F0E9
:100670007BC046C012BE83B7886483BF83B78E2910
:1006800083BF83B7802B83BF41BF87B7816087BF9C
:100690002115310511F0C90102C081EC92E090935F
:1006A0006E0280936D0260C01DBC1CBC8FB5816062
:1006B0008FBD8EB588608EBD8EB58E298EBD8FB5EF
:1006C000802B8FBD5BBD4ABD79BD68BDB0937900FD
:1006D000A093780087B7846087BF2115310511F09A
:1006E000C90102C081EC92E0909372028093710282
:1006F0003BC081EC92E0909356028093550234C047
:10070000109289001092880080918B008160809304
:100710008B0080918A00886080938A0080918A0093
:100720008E2980938A0080918B00802B80938B0090
:1007300050938700409386007093850060938400F7
:10074000B0938300A093820080917D0084608093A9
:100750007D002115310511F0C90102C081EC92E044
:1007600090936802809367022E960FB6F894DEBFCE
:100770000FBECDBFCF91DF911F910F91FF90EF90F2
:10078000DF90CF900895CF92DF92EF92FF920F9378
:100790001F93DF93CF93CDB7DEB768970FB6F8946A
:1007A000DEBF0FBECDBFC42EDE011196E4E3F1E043
:1007B0002AE001900D922150E1F7DE011B96E6E25E
:1007C000F1E02EE001900D922150E1F720E032E1BE
:1007D0004AE750E00E94420C28EE33E040E050E04F
:1007E0000E94610C79018A01BE01655F7F4FFE01A5
:1007F0003196DD2488E0C81621F4308120E0C9015B
:1008000011C0A0E1CA1641F480819181A0E0B0E05E
:10081000DC019927882708C0CC2081F4DB015C919A
:1008200040E0CA01A0E0B0E08E159F05A007B10727
:1008300028F02D2D30E02F5F3F4F09C0D3946E5F1D
:100840007F4F3296B6E0DB16A9F620E030E0C90112
:1008500068960FB6F894DEBF0FBECDBFCF91DF9183
:100860001F910F91FF90EF90DF90CF9008956F92BE
:100870007F928F929F92AF92BF92CF92DF92EF9230
:10088000FF920F931F93DF93CF93CDB7DEB7A4975B
:100890000FB6F894DEBF0FBECDBF2D8F3E8F4F8FAA
:1008A00058A369A37AA38BA39CA32D8D3E8D8F8C17
:1008B00098A0A9A0BAA06BA07CA0DE011196EAE1E5
:1008C000F1E08CE001900D928150E1F7DE011D9680
:1008D000EAE0F1E080E101900D928150E1F72130F2
:1008E000310509F473C02130310548F0223031055B
:1008F00009F4C1C02330310509F067C10CC1C5013D
:10090000B40148E00E94C3036C0184E0C816D1041E
:1009100061F0E5E0CE16D10461F0F3E0CF16D1042A
:1009200059F4F4E0CF2ED12C07C0E6E0CE2ED12C26
:1009300003C077E0C72ED12CC3BE87B7816087BFC5
:1009400080914802816080934802C501B40120E093
:1009500032E14AE750E00E94420C0E94D4097B0138
:100960008C01CC0CDD1CCC0EDD1EF60125853685F8
:1009700088EE93E0289FB001299F700D389F700D7D
:10098000112480E090E00E94D4099B01AC01C801D1
:10099000B7010E94A4080E94CE0620E031E0261B89
:1009A000370B30934A02209349028091490290917B
:1009B0004A0282BF6114710411F0C30102C081ECCC
:1009C00092E090936E0280936D02FFC0C501B40166
:1009D00040E10E94C3038C0110927A0080917A005A
:1009E0008FBD0EBD8091480282608093480287B718
:1009F000846087BFC501B40120E032E14AE750E0DE
:100A00000E94420C0E94D4096B017C01000F111F4F
:100A10000C0F1D1FF8012181328188EE93E0289F81
:100A2000B001299F700D389F700D112480E090E077
:100A30000E94D4099B01AC01C701B6010E94A40821
:100A40000E94CE06709561957F4F70934C02609323
:100A50004B0280914B0290914C029DBD8CBD611464
:100A6000710411F0C30102C081EC92E09093720214
:100A700080937102AAC0C501B40148E00E94C3037B
:100A80008C0185BD87B7806487BF809148028460F0
:100A900080934802C501B40120E032E14AE750E00A
:100AA0000E94420C0E94D4096B017C01000F111FAF
:100AB0000C0F1D1FF8012181328188EE93E0289FE1
:100AC000B001299F700D389F700D112480E090E0D7
:100AD0000E94D4099B01AC01C701B6010E94A40881
:100AE0000E94CE0620E031E0261B370B30934E02E9
:100AF00020934D0280914D0290914E0284BD61146D
:100B0000710411F0C30102C081EC92E0909356028F
:100B1000809355025AC0C501B40140E10E94C3034D
:100B20008C0110928C0080918C0080938B0000933C
:100B30008A008091480288608093480280917D00FD
:100B4000846080937D00C501B40120E032E14AE772
:100B500050E00E94420C0E94D4096B017C01000FFE
:100B6000111F0C0F1D1FF8012181328188EE93E0C7
:100B7000289FB001299F700D389F700D112480E0CF
:100B800090E00E94D4099B01AC01C701B6010E940C
:100B9000A4080E94CE06709561957F4F7093500215
:100BA00060934F0280914F02909150029093890080
:100BB000809388006114710411F0C30102C081ECBC
:100BC00092E09093680280936702A4960FB6F8941F
:100BD000DEBF0FBECDBFCF91DF911F910F91FF9070
:100BE000EF90DF90CF90BF90AF909F908F907F90CD
:100BF0006F9008951F920F920FB60F920BB60F923F
:100C000011242F933F934F935F936F937F938F9311
:100C10009F93AF93BF93EF93FF938091480280FF20
:100C200005C08091490290914A0282BFE0916D0215
:100C3000F0916E020995FF91EF91BF91AF919F9155
:100C40008F917F916F915F914F913F912F910F9075
:100C50000BBE0F900FBE0F901F9018951F920F9212
:100C60000FB60F920BB60F9211242F933F934F9311
:100C70005F936F937F938F939F93AF93BF93EF9304
:100C8000FF938091480281FF06C080914B029091B2
:100C90004C029DBD8CBDE0917102F09172020995EC
:100CA000FF91EF91BF91AF919F918F917F916F9144
:100CB0005F914F913F912F910F900BBE0F900FBE00
:100CC0000F901F9018951F920F920FB60F920BB6B0
:100CD0000F9211242F933F934F935F936F937F93C2
:100CE0008F939F93AF93BF93EF93FF9380914802AD
:100CF00082FF05C080914D0290914E0284BDE0912B
:100D00005502F09156020995FF91EF91BF91AF9175
:100D10009F918F917F916F915F914F913F912F9113
:100D20000F900BBE0F900FBE0F901F9018951F9243
:100D30000F920FB60F920BB60F9211242F933F9381
:100D40004F935F936F937F938F939F93AF93BF93D3
:100D5000EF93FF938091480283FF08C080914F0278
:100D6000909150029093890080938800E0916702EF
:100D7000F09168020995FF91EF91BF91AF919F911A
:100D80008F917F916F915F914F913F912F910F9034
:100D90000BBE0F900FBE0F901F901895EF92FF9211
:100DA0000F931F937B018C0120E030E040E05FE473
:100DB0000E94500988238CF0C801B70120E030E080
:100DC00040E05FE40E9446080E9480099B01AC015C
:100DD000205030404040504806C0C801B7010E9432
:100DE00080099B01AC01B901CA011F910F91FF90CD
:100DF000EF900895A0E0B0E0E0E0F7E00C94830C01
:100E0000DC012B01FA019C91923008F439C1EB010D
:100E10008881823008F433C1943069F4843009F059
:100E20002FC111969C9111978981981709F428C1B7
:100E3000AEE3B1E025C1843009F421C18230A9F4C8
:100E4000923009F01DC19A01AD0188E0EA010990D4
:100E5000AE01E90109929E018150C1F7E201898149
:100E600011969C918923818308C1923009F407C1AE
:100E700012962D903C901397EB018A819B811496DA
:100E8000AD90BD90CD90DC901797EC80FD800E81E9
:100E90001F819101281B390BB90137FF04C0662758
:100EA0007727621B730B603271050CF061C012165C
:100EB00013066CF537014801062E04C096948794FA
:100EC000779467940A94D2F721E030E040E050E054
:100ED00004C0220F331F441F551F6A95D2F72150BB
:100EE0003040404050402E213F21402351232115C6
:100EF00031054105510521F021E030E040E050E0AE
:100F000079018A01E628F728082919293CC0232BF2
:100F1000D1F1260E371E35014601062E04C09694E7
:100F20008794779467940A94D2F721E030E040E008
:100F300050E004C0220F331F441F551F6A95D2F79B
:100F400021503040404050402A213B214C215D211E
:100F5000211531054105510521F021E030E040E047
:100F600050E059016A01A628B728C828D9280BC023
:100F7000821593052CF01C01AA24BB24650103C033
:100F8000EE24FF24870111969C91D20111968C9139
:100F9000981709F445C0992339F0A80197012A1937
:100FA0003B094C095D0906C0A60195012E193F09B0
:100FB000400B510B57FD08C01182338222822483DB
:100FC0003583468357831DC081E08183338222822B
:100FD00088279927DC01821B930BA40BB50B848314
:100FE0009583A683B7830DC0220F331F441F551F5F
:100FF000248335834683578382819381019793832A
:1010000082832481358146815781DA01C9010197A4
:10101000A109B1098F5F9F4FAF4FBF4328F30BC0AA
:10102000918333822282EA0CFB1C0C1D1D1DE4827D
:10103000F5820683178383E080832481358146818E
:10104000578157FF1AC0C901AA2797FDA095BA2F4B
:1010500081709070A070B070569547953795279520
:10106000822B932BA42BB52B84839583A683B783E4
:1010700082819381019693838283DF0101C0D20133
:10108000CD01CDB7DEB7E2E10C949F0CA0E2B0E059
:10109000ECE4F8E00C948F0C69837A838B839C8357
:1010A0002D833E834F835887E9E0EE2EF12CEC0E22
:1010B000FD1ECE010196B7010E94710B8E010F5EDD
:1010C0001F4FCE010596B8010E94710B8A8991E0ED
:1010D00089278A8BC701B801AE01475E5F4F0E9426
:1010E000FA060E949C0AA096E6E00C94AB0CA0E2E3
:1010F000B0E0EDE7F8E00C948F0C69837A838B8382
:101100009C832D833E834F835887F9E0EF2EF12C8B
:10111000EC0EFD1ECE010196B7010E94710B8E01EF
:101120000F5E1F4FCE010596B8010E94710BC701DB
:10113000B801AE01475E5F4F0E94FA060E949C0A0A
:10114000A096E6E00C94AB0CA8E1B0E0EAEAF8E087
:101150000C948B0C69837A838B839C832D833E83D1
:101160004F835887B9E0EB2EF12CEC0EFD1ECE011B
:101170000196B7010E94710B8E010F5E1F4FCE01C9
:101180000596B8010E94710B2985223008F47EC0B3
:101190003989323010F4B8017CC08A859A89892750
:1011A0008A87243011F0223031F4231709F06EC001
:1011B0006EE371E06EC0343039F41D861E861F86E2
:1011C000188A1C861B8604C0323021F484E089878B
:1011D000B7015FC02B853C858B899C89281B390B07
:1011E0003C872B87ED84FE840F851889AD88BE88E7
:1011F000CF88D88CEA14FB040C051D0540F4EE0CD6
:10120000FF1C001F111F215030403C872B8720E01E
:1012100030E040E050E080E090E0A0E0B0E460E04A
:1012200070E0EA14FB040C051D0540F0282B392B57
:101230004A2B5B2BEA18FB080C091D09B695A795EC
:1012400097958795EE0CFF1C001F111F6F5F7F4F56
:101250006F31710531F7DA01C9018F779070A07095
:10126000B07080349105A105B10561F427FD0AC075
:10127000E114F1040105110529F0205C3F4F4F4FA7
:101280005F4F20782D873E874F87588BBE01675F61
:101290007F4FCB010E949C0A6896EAE00C94A70C51
:1012A000A8E1B0E0E6E5F9E00C948F0C69837A835D
:1012B0008B839C832D833E834F83588789E0E82E60
:1012C000F12CEC0EFD1ECE010196B7010E94710BB0
:1012D0008E010F5E1F4FCE010596B8010E94710B63
:1012E0008985823040F08989823028F0C701B801B1
:1012F0000E94E90B01C08FEF6896E6E00C94AB0CFE
:10130000ACE0B0E0E6E8F9E00C94930C69837A83F2
:101310008B839C83CE010196BE016B5F7F4F0E9441
:10132000710B8D81823061F1823050F1843021F473
:101330008E81882351F12EC02F81388537FD20C042
:101340006E812F3131051CF06623F9F023C08EE148
:1013500090E0821B930B29853A854B855C8504C000
:1013600056954795379527958A95D2F76623B1F01C
:1013700050954095309521953F4F4F4F5F4F0EC090
:1013800020E030E040E050E009C02FEF3FEF4FEFAA
:101390005FE704C020E030E040E050E8B901CA0156
:1013A0002C96E2E00C94AF0CA8E0B0E0EAEDF9E096
:1013B0000C948B0C7B018C016115710581059105E5
:1013C00019F482E0898360C083E089838EE1C82EAE
:1013D000D12CDC82CB82ED82FE820F831887C8017C
:1013E000B7010E944D0AFC013197F7FF3BC022274D
:1013F00033272E1B3F0B57016801022E04C0D694E1
:10140000C794B794A7940A94D2F740E050E060E004
:1014100070E081E090E0A0E0B0E004C0880F991F88
:10142000AA1FBB1F2A95D2F70197A109B1098E21E6
:101430009F21A023B1230097A105B10521F041E030
:1014400050E060E070E04A295B296C297D294D83DA
:101450005E836F8378878EE190E08E1B9F0B9C8369
:101460008B8312C0309781F00E2E04C0EE0CFF1C4F
:10147000001F111F0A94D2F7ED82FE820F83188796
:10148000CE1ADF0ADC82CB821A82CE0101960E943C
:101490009C0A2896EAE00C94A70CEF92FF920F9317
:1014A0001F937B018C0180E0E81680E0F80681E064
:1014B000080780E0180788F48FEFE816F1040105AB
:1014C000110531F028F088E090E0A0E0B0E017C00E
:1014D00080E090E0A0E0B0E012C080E0E81680E09C
:1014E000F80680E0080781E0180728F088E190E01E
:1014F000A0E0B0E004C080E190E0A0E0B0E020E235
:1015000030E040E050E0281B390B4A0B5B0B04C075
:1015100016950795F794E7948A95D2F7F701EA5B59
:10152000FE4F8081281B310941095109C9011F91D2
:101530000F91FF90EF900895DF92EF92FF920F933B
:101540001F93FC01E480F58006811781D1808081A2
:10155000823048F480E090E0A0E1B0E0E82AF92A87
:101560000A2B1B2BA5C0843009F49FC0823021F4C4
:10157000EE24FF24870105C0E114F10401051105E3
:1015800019F4E0E0F0E096C0628173819FEF623869
:1015900079070CF05BC022E83FEF261B370B2A319E
:1015A00031052CF020E030E040E050E02AC0B801E6
:1015B000A701022E04C076956795579547950A9422
:1015C000D2F781E090E0A0E0B0E004C0880F991F5E
:1015D000AA1FBB1F2A95D2F70197A109B1098E2135
:1015E0009F21A023B1230097A105B10521F081E03F
:1015F00090E0A0E0B0E09A01AB01282B392B4A2BF8
:101600005B2BDA01C9018F779070A070B0708034C5
:101610009105A105B10539F427FF09C0205C3F4FB2
:101620004F4F5F4F04C0215C3F4F4F4F5F4FE0E093
:10163000F0E02030A0E03A07A0E04A07A0E45A0713
:1016400010F0E1E0F0E079018A0127C0603871050F
:1016500064F5FB01E158FF4FD801C7018F77907007
:10166000A070B07080349105A105B10539F4E7FE92
:101670000DC080E490E0A0E0B0E004C08FE390E013
:10168000A0E0B0E0E80EF91E0A1F1B1F17FF05C0FF
:1016900016950795F794E794319687E01695079588
:1016A000F794E7948A95D1F705C0EE24FF248701CB
:1016B000EFEFF0E06E2F679566276795902F9F7785
:1016C000D794DD24D7948E2F8695492F462B582FFB
:1016D0005D29B701CA011F910F91FF90EF90DF9034
:1016E0000895FC01DB01408151812281622F6F77D7
:1016F00070E0221F2227221F9381892F880F822BBF
:10170000282F30E0991F9927991F11969C931197C4
:1017100021153105A9F5411551056105710511F432
:1017200082E037C082E89FEF13969C938E931297C6
:101730009A01AB0167E0220F331F441F551F6A95C2
:10174000D1F783E08C930DC0220F331F441F551F28
:1017500012968D919C911397019713969C938E935B
:101760001297203080E0380780E0480780E458076F
:1017700058F314962D933D934D935C9317970895CA
:101780002F3F310579F4411551056105710519F4B3
:1017900084E08C93089564FF03C081E08C9312C0B1
:1017A0001C9210C02F57304013963C932E931297E3
:1017B00083E08C9387E0440F551F661F771F8A953F
:1017C000D1F7706414964D935D936D937C93179746
:1017D00008951F93DC01FB019C91923008F447C0EF
:1017E0008081823008F443C0943051F411961C91EA
:1017F000843099F58181682F70E0611B71093FC0C9
:10180000843021F0923031F48230B9F18181882323
:1018100089F12DC011961C9111978230F1F08181D0
:101820001817D9F412962D913C91139782819381C8
:101830008217930794F028173907BCF014968D91FE
:101840009D910D90BC91A02D2481358146815781B9
:10185000281739074A075B0718F4112341F00AC01B
:1018600082179307A407B50740F4112319F061E02C
:1018700070E005C06FEF7FEF02C060E070E0CB0169
:101880001F910895629FD001739FF001829FE00D28
:10189000F11D649FE00DF11D929FF00D839FF00DEF
:1018A000749FF00D659FF00D9927729FB00DE11D9B
:1018B000F91F639FB00DE11DF91FBD01CF01112478
:1018C0000895A1E21A2EAA1BBB1BFD010DC0AA1F81
:1018D000BB1FEE1FFF1FA217B307E407F50720F099
:1018E000A21BB30BE40BF50B661F771F881F991F14
:1018F0001A9469F760957095809590959B01AC015D
:10190000BD01CF0108952F923F924F925F926F9247
:101910007F928F929F92AF92BF92CF92DF92EF927F
:10192000FF920F931F93CF93DF93CDB7DEB7CA1B00
:10193000DB0B0FB6F894DEBF0FBECDBF09942A882B
:10194000398848885F846E847D848C849B84AA84D3
:10195000B984C884DF80EE80FD800C811B81AA8160
:10196000B981CE0FD11D0FB6F894DEBF0FBECDBF2B
:08197000ED010895F894FFCF8A
:101978004E01680156015F010100000001000800E6
:101988002000400080000001000400000100080061
:101998004000000100040100080020004000800011
:1019A80000010004010008004000000100040000DC
:1019B8000000000000000001020203030303040406
:1019C80004040404040405050505050505050505C5
:1019D80005050505050506060606060606060606A5
:1019E800060606060606060606060606060606068F
:1019F8000606060606060707070707070707070775
:101A0800070707070707070707070707070707075E
:101A1800070707070707070707070707070707074E
:101A2800070707070707070707070707070707073E
:101A38000707070707070808080808080808080824
:101A4800080808080808080808080808080808080E
:101A580008080808080808080808080808080808FE
:101A680008080808080808080808080808080808EE
:101A780008080808080808080808080808080808DE
:101A880008080808080808080808080808080808CE
:101A980008080808080808080808080808080808BE
:101AA80008080808080808080808080808080808AE
:061AB800080808080808F8
:00000001FF
