:100000000C9446000C9465000C9465000C946500FB
:100010000C9465000C9465000C9465000C946500CC
:100020000C9465000C9465000C9465000C946500BC
:100030000C9465000C9465000C9465000C946500AC
:100040000C9465000C9465000C9465000C9465009C
:100050000C9465000C9465000C9465000C9465008C
:100060000C9465000C9465000C9465000C9465007C
:100070000C9465000C9465000C9465000C9465006C
:100080000C9465000C9465000C94650011241FBE4F
:10009000CFEFD0E1DEBFCDBF11E0A0E0B1E0EEEDEB
:1000A000FBE000E00BBF02C007900D92A830B10743
:1000B000D9F711E0A8E0B1E001C01D92AA32B10762
:1000C000E1F70E9467000C94ED050C940000DF93AB
:1000D000CF93CDB7DEB72A970FB6F894DEBF0FBE29
:1000E000CDBF20E030E040E050E0E0E0F0E02083F1
:1000F00031834283538380E090E0A0E4B0E48483C2
:100100009583A683B783208731874287538783E00F
:1001100090E0482F9A83898381E090E0682F9C8348
:100120008B838FE18D835A817C810E947D011F82A8
:100130001E821986188683E08A874E815F816885D2
:1001400079850E947D01949892989398C89AC99A4B
:1001500080E090E08130910579F08130910538F0B0
:100160008230910571F083309105A1F70FC080E0D6
:1001700090E00E94CB00EECF80E090E00E94D4009F
:10018000E9CF80E090E00E942401E4CF80E090E09D
:100190000E942D01DFCF919A29B330E02095309550
:1001A00021703070C9010895CF92DF92EF92FF92D3
:1001B0000F931F93CF93DF93EC01919820E030E0F1
:1001C00049E150E0909880E197E2FA013197F1F728
:1001D0000197D9F7909A2F5F3F4F2230310591F761
:1001E000949A929A939889E1C82ED12C13C0C80191
:1001F000B70120E030E040E85FE30E9483036883BA
:1002000079838A839B8380E197E2F6013197F1F746
:100210000197D9F7E880F9800A811B81C801B701ED
:100220002C813D814E815F810E94E00387FDDFCFFD
:10023000949882E090E0DF91CF911F910F91FF9011
:10024000EF90DF90CF900895C99B03C022E030E08B
:1002500002C023E030E0C9010895CF92DF92EF920F
:10026000FF920F931F93CF93DF93EC01949A929890
:10027000939A99E1C92ED12C13C0C801B70120E08F
:1002800030E040E85FE30E945203688379838A8309
:100290009B8380E197E2F6013197F1F70197D9F757
:1002A000E880F9800A811B81C801B701288539855A
:1002B0004A855B850E94B0031816FCF220E030E00E
:1002C00049E150E0909880E197E2FA013197F1F727
:1002D0000197D9F7909A2F5F3F4F2330310591F75F
:1002E0009498909880E090E0DF91CF911F910F91CA
:1002F000FF90EF90DF90CF900895DF93CF9300D0E1
:1003000000D00F92CDB7DEB749835A836B837C83CD
:100310008D8329813A81482F8B819C81019789F5B2
:100320002330310501F12430310538F42130310515
:1003300099F02230310598F40BC025303105C9F011
:100340002530310598F02630310509F057C015C029
:100350008AB3842B8ABB52C087B3842B32C084B348
:10036000842B84BB4BC081B3842B34C082B1842BDB
:1003700036C080916100842B38C080916400842B4A
:100380003BC02330310519F12430310548F42130C8
:100390003105A1F0942F909522303105A0F40AC0C8
:1003A00025303105F1F025303105B0F0263031052A
:1003B00029F51EC08AB398239ABB20C087B3409505
:1003C000842387BB1BC084B3982394BB17C081B31D
:1003D0004095842381BB12C082B14095842382B9A9
:1003E0000DC080916100409584238093610006C018
:1003F0008091640040958423809364000F900F9057
:100400000F900F900F90CF91DF910895A0E0B0E092
:10041000ECE0F2E00C94B605DC012B01FA019C91B2
:10042000923008F439C1EB018881823008F433C17D
:10043000943069F4843009F02FC111969C91119782
:100440008981981709F428C1A0E0B1E025C1843062
:1004500009F421C18230A9F4923009F01DC19A013A
:10046000AD0188E0EA010990AE01E90109929E011F
:100470008150C1F7E201898111969C918923818382
:1004800008C1923009F407C112962D903C90139741
:10049000EB018A819B811496AD90BD90CD90DC904C
:1004A0001797EC80FD800E811F819101281B390B6D
:1004B000B90137FF04C066277727621B730B6032D0
:1004C00071050CF061C0121613066CF53701480176
:1004D000062E04C096948794779467940A94D2F772
:1004E00021E030E040E050E004C0220F331F441F01
:1004F000551F6A95D2F721503040404050402E2180
:100500003F2140235123211531054105510521F09B
:1005100021E030E040E050E079018A01E628F72848
:10052000082919293CC0232BD1F1260E371E35018D
:100530004601062E04C096948794779467940A9493
:10054000D2F721E030E040E050E004C0220F331F3A
:10055000441F551F6A95D2F721503040404050400B
:100560002A213B214C215D212115310541055105F1
:1005700021F021E030E040E050E059016A01A62876
:10058000B728C828D9280BC0821593052CF01C0168
:10059000AA24BB24650103C0EE24FF248701119621
:1005A0009C91D20111968C91981709F445C099231A
:1005B00039F0A80197012A193B094C095D0906C0C9
:1005C000A60195012E193F09400B510B57FD08C09C
:1005D00011823382228224833583468357831DC050
:1005E00081E081833382228288279927DC01821B64
:1005F000930BA40BB50B84839583A683B7830DC09F
:10060000220F331F441F551F24833583468357838E
:1006100082819381019793838283248135814681EE
:100620005781DA01C9010197A109B1098F5F9F4F75
:10063000AF4FBF4328F30BC0918333822282EA0C71
:10064000FB1C0C1D1D1DE482F5820683178383E0CD
:100650008083248135814681578157FF1AC0C901A3
:10066000AA2797FDA095BA2F81709070A070B070E6
:100670005695479537952795822B932BA42BB52B11
:1006800084839583A683B783828193810196938324
:100690008283DF0101C0D201CD01CDB7DEB7E2E137
:1006A0000C94D205A0E2B0E0E8E5F3E00C94C205BA
:1006B00069837A838B839C832D833E834F83588702
:1006C000E9E0EE2EF12CEC0EFD1ECE010196B701F5
:1006D0000E94E5048E010F5E1F4FCE010596B80102
:1006E0000E94E5048A8991E089278A8BC701B801B5
:1006F000AE01475E5F4F0E9406020E941004A09662
:10070000E6E00C94DE05A0E2B0E0E9E8F3E00C944A
:10071000C20569837A838B839C832D833E834F83B9
:100720005887F9E0EF2EF12CEC0EFD1ECE0101965C
:10073000B7010E94E5048E010F5E1F4FCE010596A2
:10074000B8010E94E504C701B801AE01475E5F4FE2
:100750000E9406020E941004A096E6E00C94DE05BA
:10076000A8E1B0E0E6EBF3E00C94C20569837A837C
:100770008B839C832D833E834F83588789E0E82EAB
:10078000F12CEC0EFD1ECE010196B7010E94E5048E
:100790008E010F5E1F4FCE010596B8010E94E50441
:1007A0008985823040F08989823028F0C701B801FC
:1007B0000E945D0501C08FEF6896E6E00C94DE05AF
:1007C000A8E1B0E0E6EEF3E00C94C20569837A8319
:1007D0008B839C832D833E834F83588789E0E82E4B
:1007E000F12CEC0EFD1ECE010196B7010E94E5042E
:1007F0008E010F5E1F4FCE010596B8010E94E504E1
:100800008985823040F08989823028F0C701B8019B
:100810000E945D0501C081E06896E6E00C94DE056B
:10082000DF92EF92FF920F931F93FC01E480F5801B
:1008300006811781D1808081823048F480E090E089
:10084000A0E1B0E0E82AF92A0A2B1B2BA5C08430CE
:1008500009F49FC0823021F4EE24FF24870105C0F3
:10086000E114F1040105110519F4E0E0F0E096C08F
:10087000628173819FEF623879070CF05BC022E8D8
:100880003FEF261B370B2A3131052CF020E030E0FA
:1008900040E050E02AC0B801A701022E04C07695BE
:1008A0006795579547950A94D2F781E090E0A0E0CC
:1008B000B0E004C0880F991FAA1FBB1F2A95D2F76A
:1008C0000197A109B1098E219F21A023B12300978F
:1008D000A105B10521F081E090E0A0E0B0E09A012F
:1008E000AB01282B392B4A2B5B2BDA01C9018F77FF
:1008F0009070A070B07080349105A105B10539F4F5
:1009000027FF09C0205C3F4F4F4F5F4F04C0215C61
:100910003F4F4F4F5F4FE0E0F0E02030A0E03A075C
:10092000A0E04A07A0E45A0710F0E1E0F0E0790106
:100930008A0127C06038710564F5FB01E158FF4F5B
:10094000D801C7018F779070A070B0708034910586
:10095000A105B10539F4E7FE0DC080E490E0A0E008
:10096000B0E004C08FE390E0A0E0B0E0E80EF91E34
:100970000A1F1B1F17FF05C016950795F794E794EC
:10098000319687E016950795F794E7948A95D1F705
:1009900005C0EE24FF248701EFEFF0E06E2F67958E
:1009A00066276795902F9F77D794DD24D7948E2F55
:1009B0008695492F462B582F5D29B701CA011F91F3
:1009C0000F91FF90EF90DF900895FC01DB014081D3
:1009D00051812281622F6F7770E0221F2227221F10
:1009E0009381892F880F822B282F30E0991F992718
:1009F000991F11969C93119721153105A9F5411561
:100A000051056105710511F482E037C082E89FEF5E
:100A100013969C938E9312979A01AB0167E0220F75
:100A2000331F441F551F6A95D1F783E08C930DC087
:100A3000220F331F441F551F12968D919C911397BF
:100A4000019713969C938E931297203080E038077D
:100A500080E0480780E4580758F314962D933D939F
:100A60004D935C93179708952F3F310579F4411505
:100A700051056105710519F484E08C93089564FFB4
:100A800003C081E08C9312C01C9210C02F573040DD
:100A900013963C932E93129783E08C9387E0440F38
:100AA000551F661F771F8A95D1F7706414964D9372
:100AB0005D936D937C93179708951F93DC01FB0161
:100AC0009C91923008F447C08081823008F443C082
:100AD000943051F411961C91843099F58181682FDE
:100AE00070E0611B71093FC0843021F0923031F415
:100AF0008230B9F18181882389F12DC011961C9132
:100B000011978230F1F081811817D9F412962D9146
:100B10003C911397828193818217930794F0281751
:100B20003907BCF014968D919D910D90BC91A02D2C
:100B30002481358146815781281739074A075B0789
:100B400018F4112341F00AC082179307A407B507D0
:100B500040F4112319F061E070E005C06FEF7FEF02
:100B600002C060E070E0CB011F9108952F923F9288
:100B70004F925F926F927F928F929F92AF92BF92AD
:100B8000CF92DF92EF92FF920F931F93CF93DF9359
:100B9000CDB7DEB7CA1BDB0B0FB6F894DEBF0FBEB6
:100BA000CDBF09942A88398848885F846E847D8403
:100BB0008C849B84AA84B984C884DF80EE80FD8005
:100BC0000C811B81AA81B981CE0FD11D0FB6F8947B
:0E0BD000DEBF0FBECDBFED010895F894FFCF3C
:080BDE0000000000000000000F
:00000001FF
