:100000000C9446000C9465000C9465000C946500FB
:100010000C9465000C9465000C9465000C946500CC
:100020000C9465000C9465000C9465000C946500BC
:100030000C9465000C9465000C9465000C946500AC
:100040000C9465000C9465000C9465000C9465009C
:100050000C9465000C94A2020C9465000C9465004D
:100060000C9465000C9465000C9465000C9465007C
:100070000C9465000C9465000C9465000C9465006C
:100080000C9465000C9465000C94650011241FBE4F
:10009000CFEFD0E1DEBFCDBF11E0A0E0B1E0EEE9EF
:1000A000F5E000E00BBF02C007900D92AA30B10747
:1000B000D9F711E0AAE0B1E001C01D92AC32B1075E
:1000C000E1F70E9467000C94CD020C9400000F939E
:1000D0001F93DF93CF93CDB7DEB728970FB6F89471
:1000E000DEBF0FBECDBFDE011196E0E0F1E088E09B
:1000F00001900D928150E1F70E94E600E0E0F0E00F
:100100008E010F5F1F4FEE0FFF1FE00FF11F0190D9
:10011000F081E02D0995FC01F6CF80E29EE429E113
:1001200030E0F9013197F1F70197D9F7919820E084
:1001300030E049E150E0909A80E197E2FA0131978E
:10014000F1F70197D9F7909880E197E2FA0131979A
:10015000F1F70197D9F72F5F3F4F2330310559F75A
:10016000909A0895949A929A9398089529B381E069
:10017000282730E021703070C901089529B330E09C
:10018000369527952095309521703070C9010895D6
:10019000949A9298939A089520E030E049E150E0D3
:1001A000909880E197E2FA013197F1F70197D9F73A
:1001B000909A2F5F3F4F2330310591F7089594981F
:1001C000089580E090E00E9407020895CF92DF92A8
:1001D000EF92FF920F931F93DF93CF93CDB7DEB7CC
:1001E00066970FB6F894DEBF0FBECDBF83E090E0F8
:1001F000482F9A83898391E0C92ED12C6C2DDC8203
:10020000CB828FE18D835A817C810E947D011F8288
:100210001E821986188683E08A874E815F816885F1
:1002200079850E947D01EC2CDC86CB8686E090E00F
:10023000082F9E878D87188A1F861A8A198A6C2D27
:10024000DC8ACB8AFC841E852F85388949895A89A6
:100250007C898D899E890E942C02919AC89AC99A9C
:1002600066960FB6F894DEBF0FBECDBFCF91DF917B
:100270001F910F91FF90EF90DF90CF9008950E9413
:10028000C80002C00E94E1000E94E100892BD1F762
:100290000E948D000E94DF0080E090E008950E949F
:1002A000B600019719F022E030E002C023E030E010
:1002B000C90108950E94B600892B19F021E030E0B1
:1002C0000BC080E395E729E130E0F9013197F1F7C0
:1002D0000197D9F720E030E0C90108950E948D0010
:1002E0000E94B20002C00E94E1000E94E1008F372C
:1002F0009105C9F782E090E00895DF93CF9300D095
:1003000000D00F92CDB7DEB749835A836B837C83CD
:100310008D8329813A81482F8B819C81019789F5B2
:100320002330310501F12430310538F42130310515
:1003300099F02230310598F40BC025303105C9F011
:100340002530310598F02630310509F057C015C029
:100350008AB3842B8ABB52C087B3842B32C084B348
:10036000842B84BB4BC081B3842B34C082B1842BDB
:1003700036C080916100842B38C080916400842B4A
:100380003BC02330310519F12430310548F42130C8
:100390003105A1F0942F909522303105A0F40AC0C8
:1003A00025303105F1F025303105B0F0263031052A
:1003B00029F51EC08AB398239ABB20C087B3409505
:1003C000842387BB1BC084B3982394BB17C081B31D
:1003D0004095842381BB12C082B14095842382B9A9
:1003E0000DC080916100409584238093610006C018
:1003F0008091640040958423809364000F900F9057
:100400000F900F900F90CF91DF910895089597B1BD
:10041000907E97B997B1982B97B9369A8091080139
:10042000909109018130910559F4349BFECF34B18C
:1004300025B1922F80E0232F30E0282B392B0AC0E2
:10044000892B19F020E030E005C0349BFECF85B148
:10045000282F30E0C9010895EF92FF920F931F9368
:10046000DF93CF93CDB7DEB72C970FB6F894DEBFEE
:100470000FBECDBFE982FA820B831C83E22F2D834E
:100480003E834F83588769877A878B879C874B8108
:100490005C8129813A816B857C85AF81B88509852E
:1004A0001A8516B848305105E8F586B1842B86B90F
:1004B0002130310551F02130310520F02230310555
:1004C00089F50BC0379A359A09C0379A86E092E0D1
:1004D00090931301809312010DC0379A339A87B11C
:1004E000807E87B987B18E2B87B9369A70931301B6
:1004F00060931201109709F43D9AB0930901A093FB
:10050000080187B18F7387B90130110511F43E9A44
:1005100006C00330110519F487B1806C87B921E05A
:1005200030E002C020E030E0C9012C960FB6F8940C
:10053000DEBF0FBECDBFCF91DF911F910F91FF9016
:10054000EF9008951F920F920FB60F920BB60F9275
:1005500011242F933F934F935F936F937F938F93C8
:100560009F93AF93BF93EF93FF93E0911201F091AC
:1005700013010995FF91EF91BF91AF919F918F91D9
:100580007F916F915F914F913F912F910F900BBE93
:0E0590000F900FBE0F901F901895F894FFCF9C
:0A059E005A016E014F013F010100F8
:00000001FF
